{
  "contractName": "Insurance",
  "abi": [
    {
      "inputs": [],
      "stateMutability": "nonpayable",
      "type": "constructor"
    },
    {
      "inputs": [
        {
          "internalType": "address",
          "name": "",
          "type": "address"
        }
      ],
      "name": "claims",
      "outputs": [
        {
          "internalType": "uint256",
          "name": "",
          "type": "uint256"
        }
      ],
      "stateMutability": "view",
      "type": "function"
    },
    {
      "inputs": [],
      "name": "insurer",
      "outputs": [
        {
          "internalType": "address",
          "name": "",
          "type": "address"
        }
      ],
      "stateMutability": "view",
      "type": "function"
    },
    {
      "inputs": [
        {
          "internalType": "address",
          "name": "claimant",
          "type": "address"
        },
        {
          "internalType": "uint256",
          "name": "amount",
          "type": "uint256"
        }
      ],
      "name": "submitClaim",
      "outputs": [],
      "stateMutability": "nonpayable",
      "type": "function"
    },
    {
      "inputs": [
        {
          "internalType": "address",
          "name": "claimant",
          "type": "address"
        }
      ],
      "name": "approveClaim",
      "outputs": [],
      "stateMutability": "nonpayable",
      "type": "function"
    }
  ],
  "bytecode": "0x608060405234801561000f575f80fd5b50335f806101000a81548173ffffffffffffffffffffffffffffffffffffffff021916908373ffffffffffffffffffffffffffffffffffffffff1602179055506105978061005c5f395ff3fe608060405234801561000f575f80fd5b506004361061004a575f3560e01c8063c6788bdd1461004e578063dbb773d91461007e578063dbc837c51461009a578063ffbc2ef4146100b8575b5f80fd5b61006860048036038101906100639190610395565b6100d4565b60405161007591906103d8565b60405180910390f35b61009860048036038101906100939190610395565b6100e9565b005b6100a2610241565b6040516100af9190610400565b60405180910390f35b6100d260048036038101906100cd9190610443565b610264565b005b6001602052805f5260405f205f915090505481565b5f8054906101000a900473ffffffffffffffffffffffffffffffffffffffff1673ffffffffffffffffffffffffffffffffffffffff163373ffffffffffffffffffffffffffffffffffffffff1614610176576040517f08c379a000000000000000000000000000000000000000000000000000000000815260040161016d906104db565b60405180910390fd5b5f60015f8373ffffffffffffffffffffffffffffffffffffffff1673ffffffffffffffffffffffffffffffffffffffff1681526020019081526020015f205490508173ffffffffffffffffffffffffffffffffffffffff166108fc8290811502906040515f60405180830381858888f193505050501580156101fa573d5f803e3d5ffd5b505f60015f8473ffffffffffffffffffffffffffffffffffffffff1673ffffffffffffffffffffffffffffffffffffffff1681526020019081526020015f20819055505050565b5f8054906101000a900473ffffffffffffffffffffffffffffffffffffffff1681565b5f8054906101000a900473ffffffffffffffffffffffffffffffffffffffff1673ffffffffffffffffffffffffffffffffffffffff163373ffffffffffffffffffffffffffffffffffffffff16146102f1576040517f08c379a00000000000000000000000000000000000000000000000000000000081526004016102e890610543565b60405180910390fd5b8060015f8473ffffffffffffffffffffffffffffffffffffffff1673ffffffffffffffffffffffffffffffffffffffff1681526020019081526020015f20819055505050565b5f80fd5b5f73ffffffffffffffffffffffffffffffffffffffff82169050919050565b5f6103648261033b565b9050919050565b6103748161035a565b811461037e575f80fd5b50565b5f8135905061038f8161036b565b92915050565b5f602082840312156103aa576103a9610337565b5b5f6103b784828501610381565b91505092915050565b5f819050919050565b6103d2816103c0565b82525050565b5f6020820190506103eb5f8301846103c9565b92915050565b6103fa8161035a565b82525050565b5f6020820190506104135f8301846103f1565b92915050565b610422816103c0565b811461042c575f80fd5b50565b5f8135905061043d81610419565b92915050565b5f806040838503121561045957610458610337565b5b5f61046685828601610381565b92505060206104778582860161042f565b9150509250929050565b5f82825260208201905092915050565b7f4f6e6c7920696e73757265722063616e20617070726f766520636c61696d73005f82015250565b5f6104c5601f83610481565b91506104d082610491565b602082019050919050565b5f6020820190508181035f8301526104f2816104b9565b9050919050565b7f4f6e6c7920696e73757265722063616e207375626d697420636c61696d7300005f82015250565b5f61052d601e83610481565b9150610538826104f9565b602082019050919050565b5f6020820190508181035f83015261055a81610521565b905091905056fea26469706673582212203fa1c3547f8a3ec3d20761d787ed0a4ec212c8eac5c565bbaf976dbb15735ed164736f6c63430008150033",
  "immutableReferences": {},
  "source": "// SPDX-License-Identifier: MIT\npragma solidity ^0.8.0;\n\ncontract Insurance {\n    address public insurer;\n    mapping(address => uint256) public claims;\n\n    constructor() {\n        insurer = msg.sender;\n    }\n\n    function submitClaim(address claimant, uint256 amount) external {\n        require(msg.sender == insurer, \"Only insurer can submit claims\");\n        claims[claimant] = amount;\n    }\n\n    function approveClaim(address claimant) external {\n        require(msg.sender == insurer, \"Only insurer can approve claims\");\n        uint256 amount = claims[claimant];\n        payable(claimant).transfer(amount);\n        claims[claimant] = 0;\n    }\n}\n",
  "sourcePath": "/Users/tusharchopra/Desktop/Development/projects/InsuraChain/contracts/Insurance.sol",
  "compiler": {
    "name": "solc",
    "version": "0.8.21+commit.d9974bed.Emscripten.clang"
  },
  "schemaVersion": "3.4.16",
  "updatedAt": "2024-09-04T15:43:16.432Z",
  "devdoc": {
    "kind": "dev",
    "methods": {},
    "version": 1
  },
  "userdoc": {
    "kind": "user",
    "methods": {},
    "version": 1
  }
}